:1000000019C100003DC100003BC1000039C1000022
:1000100037C1000035C1000033C1000031C100000C
:100020002FC100002DC100002BC1000029C100001C
:1000300027C1000025C100000C94B11B21C10000A4
:100040001FC100001DC100001BC1000019C100003C
:100050000C94A42515C100000C94D22811C10000F5
:100060000FC100000DC100000BC1000009C100005C
:100070000C94F52C05C1000003C1000001C1000073
:10008000FFC00000FDC00000FBC00000F9C0000080
:10009000F7C00000F5C00000F3C00000F1C0000090
:1000A000EFC00000EDC00000EBC000000C94581A37
:1000B000E7C00000E5C00000E3C000000C944F1B47
:1000C000DFC000000C947E1BDBC00000D9C0000024
:1000D000D7C00000D5C00000D3C00000D1C00000D0
:1000E000CFC00000CDC00000CBC00000C9C00000E0
:1000F000C7C00000C5C00000C3C00000C1C00000F0
:100100000C94101ABDC00000BBC00000B9C00000B4
:10011000B7C00000B5C00000B3C000000C94D11BF4
:10012000AFC00000ADC00000ABC00000A9C000001F
:10013000A7C000000C94911BA3C00000A1C0000048
:100140009FC000009DC000009BC0000099C000003F
:1001500097C0000095C0000093C0000091C000004F
:100160008FC000008DC000008BC0000089C000005F
:1001700087C0000085C0000083C0000081C000006F
:100180000C94F21A7DC000000C944C2B79C0000036
:1001900077C0000075C0000073C0000071C000008F
:1001A0000C94A51A6DC000006BC0000069C000006F
:1001B0000C940D1B65C000000C943C1B61C000003A
:1001C0005FC000005DC000005BC0000059C00000BF
:1001D00057C0000055C0000053C000000C94242CF0
:1001E0000C94F02A4DC000004BC0000049C0000034
:1001F00047C0000045C0000043C0000068186018F8
:1002000057184E1845183C187118D019CC19C81930
:10021000C419C019BC19D4190C1A081A041A001AE6
:10022000FC19F819F419EC19E819E419E019DC19AA
:10023000D819F01911241FBECFEFCDBFDFE3DEBF09
:1002400000E00CBF18BE19BE1ABE1BBE13E2A0E030
:10025000B0E2ECE4FCE500E00BBF02C007900D92B9
:10026000A239B107D9F71BBE2EE3A2E9B3E201C060
:100270001D92AD3DB207E1F70E941E1C0C94242E86
:10028000BFCE8F92AF92BF92CF92DF92EF920F9339
:1002900081E08F938F9385E393E29F938F938BE518
:1002A000882E96E8A92EB12C24E3C22E24E2D22E69
:1002B000E12C00E023E041E061E080EC94E00E946A
:1002C000CE230F900F900F900F900F91EF90DF9033
:1002D000CF90BF90AF908F9008958F929F92AF92E2
:1002E000BF92CF92DF92EF92FF921F93CF93DF9353
:1002F00000D0CDB7DEB719821A821B8280E09BE066
:100300000E94C02080EAE82E86E0F82E11E0F70176
:10031000168380E09AE00E94C02090E8C92E96E003
:10032000D92EF601168380E099E00E94C02020E6D5
:10033000A22E26E0B22EF501168380E098E00E94FE
:10034000C02010934606E0E2F6E010E4158380E258
:10035000858332EA832E912C81E8F4018083BE01EB
:100360006F5F7F4FCB010E94301C87E8F4018083D0
:10037000F5011683F6011683F701168310E8F501DF
:10038000168361E08091B4240E942B18F601168335
:1003900061E08091B5240E942B18F701168361E07B
:1003A0008091B6240E942B182396CDBFDEBFDF912B
:1003B000CF911F91FF90EF90DF90CF90BF90AF90C3
:1003C0009F908F90089508950F931F93CF93DF937D
:1003D000CDB7DEB76097CDBFDEBF0E94C5180E94C3
:1003E000271C93E89093080385E880930903909372
:1003F00028038093290380E4809321031092220331
:100400008DE08093200380E10E94AB218091220245
:100410008160809322022FEF83EC99E0215080408D
:100420009040E1F700C0000088E080932102AE0117
:100430004F5E5F4F21E0FE0131968091200280687F
:10044000809320028091230280FFFCCF209323021F
:10045000809124029091250281939193E417F507EE
:1004600061F709811A818B819C816D817E8186175C
:10047000970759F181E0AF81B8856A177B0709F0CA
:1004800081E0E985FA85AE17BF0709F081E06B8549
:100490007C85E617F70709F081E0ED85FE856E178C
:1004A0007F0749F6EF85F8896E177F0721F68111DE
:1004B000C2CF00932324109324246096CDBFDEBFC7
:1004C000DF91CF911F910F91089581E006171707D3
:1004D00091F680E0D0CFE4E3F4E21282138214823A
:1004E000158216821782108611861286138614864C
:1004F00015861686128A138A88E390E0868B978B7E
:1005000084EF91E0808F918F828F938F848F958F6E
:100510002FE030E0268F378F20A331A322A333A30F
:1005200084A395A386A397A380A791A782A793A747
:100530008AEF90E084A795A786A797A780AB91AB99
:1005400082AB93AB88EE93E084AB95AB80ED97E004
:1005500086AB97AB88EB9BE080AF91AF80EA9FE0E2
:1005600082AF93AF82E384AF85AF86AF87AF10923F
:100570007424109275248FEF809376241092772440
:10058000109278241092792410927A2480937B24FC
:1005900080937C2410927D2410927E2410927F24DC
:1005A00010928024809381248AE080938224809317
:1005B00083248EE180938424809385248FE180932B
:1005C00086241092872410928824109289241092F5
:1005D0008A2410928B248EE190E08093962490934D
:1005E00097248093992490939A2420E23EE42093C8
:1005F0009F243093A0248CED95E08093A1249093C8
:10060000A2242093A3243093A4248093A524909320
:10061000A62481E08093B92408950F931F93CF936C
:10062000DF9300D0CDB7DEB7E5E2F4E210821182AD
:100630001282138214821582168217821086118606
:100640001286138614861586168604E314E2F801D2
:100650008085918589839A83CE0101960E94DF105F
:10066000809182248B83CE0103968ED58091832442
:100670008B83CE010396BED5F80184A995A9898301
:100680009A83CE010196E4D6F80186A997A98983B9
:100690009A83CE0101963AD7F80180AD91AD898356
:1006A0009A83CE01019690D7F80182AD93AD8983EC
:1006B0009A83CE010196E6D7809174248B83CE0174
:1006C00003960E94A00B80918B248B83CE0103960E
:1006D0000E94280D8091AE248B83CE0103960E9448
:1006E000910E8091AF248B83CE0103960E94B00EB1
:1006F0008091B0248B83CE0103960E94EE0E8091F0
:10070000B4248B83CE0103960E94CF0E8091B52432
:100710008B83CE0103960E94720E8091B6248B8348
:10072000CE0103960E940D0F81E08093B924239699
:10073000CDBFDEBFDF91CF911F910F910895089536
:1007400008950895089508958091952391E0980F54
:100750009093952380FF08950E94AD2681E08093B9
:10076000062410922102809120028068809320024A
:1007700080918B2482FFEFCF809160099091610975
:10078000905880934624909347240895089510929A
:1007900095230895CF93DF93C0919923D091982307
:1007A0008091072490910824009741F0019780934D
:1007B000072490930824892B09F40FC18091092400
:1007C00090910A24009741F0019780930924909317
:1007D0000A24892B09F4FDC080910B2490910C24EC
:1007E000009741F0019780930B2490930C24892B60
:1007F00009F4EBC080910D2490910E24009741F0F4
:10080000019780930D2490930E24892B09F4F1C055
:1008100080910F2490911024009741F001978093CC
:100820000F2490931024892B09F4ECC0809111249B
:1008300090911224009741F0019780931124909396
:100840001224892B09F4E7C0809113249091142479
:10085000009741F001978093132490931424892BDF
:1008600009F4AFC08091152490911624009741F0AF
:1008700001978093152490931624892B09F49DC029
:100880008091172490911824009741F0019780934C
:10089000172490931824892B09F48BC080919923F5
:1008A0002091192430911A242115310549F0215045
:1008B00031092093192430931A24232B09F471C091
:1008C00060919823C81709F471C00E942116809185
:1008D0001B2490911C24009741F0019780931B24C6
:1008E00090931C24892B09F44DC080911D24909174
:1008F0001E24009739F0019780931D2490931E24A5
:10090000892B91F180911F2490912024009739F038
:10091000019780931F2490932024892BB9F0809114
:10092000212490912224009771F001978093212433
:1009300090932224892B39F481E08093460680919C
:10094000282481114EC0DF91CF91089581E08093DA
:10095000660680912724882311F31092272480E0D3
:1009600099E00E94C020DBCF81E0809386068091D1
:100970002624882339F21092262480E09AE00E94EF
:10098000C020C0CF81E08093A606809125248823D3
:1009900009F4ABCF1092252480E09BE00E94C02098
:1009A000A4CF1092982360E0C8138FCFD6138DCFB9
:1009B0008ECF1092992380E073CF80E2809325063A
:1009C0005FCF80E4809325064DCF80E48093A60618
:1009D00011CF80E480938606FFCE80E48093660684
:1009E000EDCE1092282480E098E0DF91CF910C9416
:1009F000C02080E88093660661E08091B4240E9464
:100A00002B1806CF80E88093860661E08091B5249C
:100A10000E942B180BCF80E88093A60661E080919E
:100A2000B6240E942B1810CF80919423882329F09C
:100A30008150809394238823F1F08091932388231D
:100A400029F0815080939323882379F08091922319
:100A5000882351F0815080939223811105C08091A9
:100A6000A90681608093A906089580918906816016
:100A700080938906EBCF8091690681608093690637
:100A8000DCCF089508950895089508950895089570
:100A900008950895089590EE980F9B3540F490E0E6
:100AA0008097FC01E852FD4D2081261711F080E06F
:100AB0000895880F991FFC01EA54FF4D0190F081C1
:100AC000E02D199581E0089590EE980F9B3548F43C
:100AD000E82FF0E0B097DF01A852BD4D9C9196172A
:100AE00011F080E00895EE0FFF1FDF01AE5DBD4DF8
:100AF0008D919C9182179307A1F7E050F04E0190E1
:100B0000F081E02DCA011994809168068295817068
:100B1000809334249091880694FF0DC092E0892B35
:100B2000809334249091A80694FD0DC090E0892B09
:100B300080933424089590E0892B809334249091FD
:100B4000A80694FFF3CF94E0892B80933424089572
:100B5000FC0180818093352481E0089580916806AE
:100B600086FB662760F970E060933C2470933D2417
:100B70008091880686FFB4C082E090E0862B972B98
:100B800080933C2490933D242091A80626FFC0C06A
:100B9000E4E0F0E08E2B9F2B80933C2490933D2447
:100BA000E09168060E2E000CFF0BBF016627770F41
:100BB000661F7727660F771F660F771F660F771FF1
:100BC000862B972B80933C2490933D24609188063C
:100BD000062E000C770B9B012227330F221F332791
:100BE00022953295307F3227207F3227AC01422B6D
:100BF000532B40933C2450933D242091A806022E71
:100C0000000C330BC9018827990F881F9927880F7B
:100C1000991F82959295907F9827807F9827842BA3
:100C2000952B80933C2490933D242091280626FF09
:100C30006CC020E030E0822B932B80933C24909377
:100C40003D242091280625FF5DC020E030E0822B66
:100C5000932B20919923222309F451C020E031E005
:100C6000822B932B20919823222309F445C020E066
:100C700032E0822B932B80933C2490933D2420914F
:100C8000A80620FF36C020E034E0822B932B80930F
:100C90003C2490933D242091880620FF27C020E02B
:100CA00038E0822B932B80933C2490933D24209119
:100CB000680620FF18C020E030E1822B932B809340
:100CC0003C2490933D242091480620FD24C020E040
:100CD00030E0822B932B80933C2490933D24089505
:100CE00080E090E04BCF20E030E0E7CF20E030E044
:100CF000D8CF20E030E0C9CF20E030E0BACF20E00C
:100D000030E0AECF20E830E0A2CF20E430E093CF57
:100D1000E0E0F0E03FCF20E030E2822B932B8093A5
:100D20003C2490933D240895FC01808180933E24CF
:100D300081E00895FC01808180933F2481E0089543
:100D4000FC0180818093402481E00895FC01808132
:100D50008093412481E00895FC01808180934224A6
:100D600081E008958091680685FB992790F990931A
:100D700043248091880685FF0DC082E0892B8093F3
:100D800043249091A80695FD0DC090E0892B809397
:100D90004324089580E0892B809343249091A806F2
:100DA00095FFF3CF94E0892B809343240895FC01B1
:100DB00080818093432481E00895FC012281338166
:100DC000209346243093472420913324222339F062
:100DD000828193819058809360099093610981E0AA
:100DE0000895FC018081918180934A2490934B2443
:100DF00081E00895FC0180819181009731F080931A
:100E00004C2490934D2481E0089580E00895FC01E6
:100E100080819181009731F080934E2490934F24EC
:100E200081E0089580E00895FC0180819181009720
:100E300031F0809350249093512481E0089580E014
:100E40000895FC0180819181009731F080935224B4
:100E50009093532481E0089580E00895FC018081FF
:100E60009181009731F0809354249093552481E030
:100E7000089580E00895FC0180819181009731F010
:100E8000809356249093572481E0089580E008953C
:100E9000FC0180819181009731F0809358249093D8
:100EA000592481E0089580E00895FC0180819181BA
:100EB000009731F080935A2490935B2481E0089549
:100EC00080E00895FC0180819181009731F080934A
:100ED0005C2490935D2481E0089580E00895FC01F6
:100EE00080819181009731F080935E2490935F24FC
:100EF00081E0089580E00895FC0180819181009750
:100F000031F0809360249093612481E0089580E023
:100F10000895FC0180819181009731F080936224D3
:100F20009093632481E0089580E00895FC0180811E
:100F30009181009731F0809364249093652481E03F
:100F4000089580E00895FC0180819181009731F03F
:100F5000809366249093672481E0089580E008954B
:100F6000CF92DF92EF92FF92CF93FC01C0818FEF7F
:100F70008C0F833698F56C2F70E080E090E00E9433
:100F8000A61E20E030E048EC52E40E94101E6B01E7
:100F90007C016091C2247091C32480E090E00E94A3
:100FA000A41E9B01AC01C701B6010E94321F20E0C4
:100FB00030E040E05FE30E94AC1D0E94781E609329
:100FC000CA247093CB2481E08093BA24C093702408
:100FD000CF91FF90EF90DF90CF90089580E0CF9178
:100FE000FF90EF90DF90CF900895CF92DF92EF9235
:100FF000FF92CF93FC01C0818FEF8C0F833698F561
:101000006C2F70E080E090E00E94A61E20E030E0AF
:1010100048EC52E40E94101E6B017C016091C424D4
:101020007091C52480E090E00E94A41E9B01AC0159
:10103000C701B6010E94321F20E030E040E05FE3CC
:101040000E94AC1D0E94781E6093CC247093CD2426
:1010500081E08093BB24C0937124CF91FF90EF90E7
:10106000DF90CF90089580E0CF91FF90EF90DF90D8
:10107000CF900895CF92DF92EF92FF92CF93FC0131
:10108000C0818FEF8C0F833698F56C2F70E080E075
:1010900090E00E94A61E20E030E048EC52E40E945E
:1010A000101E6B017C016091C6247091C72480E002
:1010B00090E00E94A41E9B01AC01C701B6010E94F2
:1010C000321F20E030E040E05FE30E94AC1D0E9450
:1010D000781E6093CE247093CF2481E08093BC244B
:1010E000C0937224CF91FF90EF90DF90CF9008953E
:1010F00080E0CF91FF90EF90DF90CF900895CF9256
:10110000DF92EF92FF92CF93FC01C0818FEF8C0FA3
:10111000833698F56C2F70E080E090E00E94A61E68
:1011200020E030E048EC52E40E94101E6B017C018C
:101130006091C8247091C92480E090E00E94A41EB0
:101140009B01AC01C701B6010E94321F20E030E0D4
:1011500040E05FE30E94AC1D0E94781E6093D024A3
:101160007093D12481E08093BD24C0937324CF91E8
:10117000FF90EF90DF90CF90089580E0CF91FF90A7
:10118000EF90DF90CF900895CF93FC01C0818FEF57
:101190008C0F843628F5809184248C1708F16C2FED
:1011A00070E080E090E00E94A41E20E030E048EC77
:1011B00052E40E94101E20E030E040E855E40E9416
:1011C000321F0E94781E6115F0E17F0760F4609382
:1011D0003A0370933B03C093822481E0CF9108953A
:1011E00080E0CF9108958FEF9FE080933A03909332
:1011F0003B03F1CFCF93FC01C0818FEF8C0F84367E
:1012000028F5809185248C1708F16C2F70E080E020
:1012100090E00E94A41E20E030E048EC52E40E94DE
:10122000101E20E030E040E855E40E94321F0E948A
:10123000781E6115F0E17F0760F4609338037093C6
:101240003903C093832481E0CF91089580E0CF914A
:1012500008958FEF9FE08093380390933903F1CF87
:10126000FC0180819EEF980F933620F480938424B4
:1012700081E0089580E00895FC0180819EEF980F41
:10128000933620F48093852481E0089580E00895CA
:10129000FC0180818093862481E00895FC01808197
:1012A00080FF04C09091292491110DC081FF07C0D7
:1012B00090912A24992319F091E09093962380939A
:1012C000882481E0089591E090939723EFCF1092C6
:1012D0008B2480913324882319F084E080938B241D
:1012E0000895FC01808191819C01225031092735AC
:1012F000324030F4809396249093972481E00895AF
:1013000080E0089580E00895FC01808191819C0136
:10131000225031092735324030F48093992490933C
:101320009A2481E0089580E00895FC0180819181F4
:101330009C01225031092D3F3F4F98F420912F24DA
:10134000222349F09C01369527952150310920939D
:1013500026093093270980939F249093A02481E04D
:10136000089580E00895FC01808191819C012650C0
:101370003109253F3F4F98F420912F24222349F033
:101380009C013695279521503109209328093093E7
:1013900029098093A1249093A22481E0089580E0FC
:1013A0000895FC01808191819C01225031092D3FDB
:1013B0003F4F98F420913024222349F09C01369528
:1013C00027952150310920932608309327088093D0
:1013D000A3249093A42481E0089580E00895FC0163
:1013E000808191819C0126503109253F3F4F98F41F
:1013F00020913024222349F09C01369527952150D5
:10140000310920932808309329088093A5249093CC
:10141000A62481E0089580E00895FC01808182FF88
:101420000AC090913324992331F020E030E82093D2
:101430006009309361098093AB2481E0089581E0D5
:1014400008950895FC0180818093B92481E0089576
:10145000CF92DF92EF92FF920F931F93CF93DF9380
:10146000FC01C081D181CE0101978031974250F0BB
:1014700080E0DF91CF911F910F91FF90EF90DF906F
:10148000CF900895BE0180E090E00E94A41E9B01D1
:10149000AC0182ECE82E84E2F82E0EEB14E260E060
:1014A00078E488EE91E00E94C5206091702470E09D
:1014B00080E090E00E94A61E20E030E048EC52E47C
:1014C0000E94101E6B017C016091C2247091C324A4
:1014D00080E090E00E94A41E9B01AC01C701B60110
:1014E0000E94321F20E030E040E05FE30E94AC1D2C
:1014F0000E94781E6093CA247093CB2481E080936D
:10150000BA24C0936824D0936924B3CFCF92DF92DA
:10151000EF92FF920F931F93CF93DF93FC01C08153
:10152000D181CE0101978031974250F080E0DF9168
:10153000CF911F910F91FF90EF90DF90CF90089582
:10154000BE0180E090E00E94A41E9B01AC0184ECEF
:10155000E82E84E2F82E0FEB14E260E078E488EEE7
:1015600091E00E94C5206091712470E080E090E0DD
:101570000E94A61E20E030E048EC52E40E94101EBB
:101580006B017C016091C4247091C52480E090E0DF
:101590000E94A41E9B01AC01C701B6010E94321F2C
:1015A00020E030E040E05FE30E94AC1D0E94781E26
:1015B0006093CC247093CD2481E08093BB24C093AE
:1015C0006A24D0936B24B3CFCF92DF92EF92FF9235
:1015D0000F931F93CF93DF93FC01C081D181CE0184
:1015E00001978031974250F080E0DF91CF911F91B9
:1015F0000F91FF90EF90DF90CF900895BE0180E0B3
:1016000090E00E94A41E9B01AC0186ECE82E84E2CF
:10161000F82E00EC14E260E078E488EE91E00E949D
:10162000C5206091722470E080E090E00E94A61EC8
:1016300020E030E048EC52E40E94101E6B017C0177
:101640006091C6247091C72480E090E00E94A41E9F
:101650009B01AC01C701B6010E94321F20E030E0BF
:1016600040E05FE30E94AC1D0E94781E6093CE2490
:101670007093CF2481E08093BC24C0936C24D093DA
:101680006D24B3CFCF92DF92EF92FF920F931F930F
:10169000CF93DF93FC01C081D181CE0101978031CE
:1016A000974250F080E0DF91CF911F910F91FF9012
:1016B000EF90DF90CF900895BE0180E090E00E940F
:1016C000A41E9B01AC0188ECE82E84E2F82E01EC0C
:1016D00014E260E078E488EE91E00E94C520609119
:1016E000732470E080E090E00E94A61E20E030E0CD
:1016F00048EC52E40E94101E6B017C016091C824EA
:101700007091C92480E090E00E94A41E9B01AC016E
:10171000C701B6010E94321F20E030E040E05FE3E5
:101720000E94AC1D0E94781E6093D0247093D12437
:1017300081E08093BD24C0936E24D0936F24B3CFF7
:10174000EF920F93CF93FC01C081C0FF05C0809141
:101750002524882309F448C0C1FF05C080912624B0
:10176000882309F468C0C2FF05C08091272488231C
:1017700009F488C0C3FF04C080912824882339F06D
:10178000C093742481E0CF910F91EF900895209140
:10179000D0243091D1244091C8245091C924E12C07
:1017A00001E06091C12480E098E00E94AC2010929A
:1017B000BD2481E0809328248093450680914A24AB
:1017C00090914B2495FFDCCF809166249091672403
:1017D00001968093212490932224C093742481E065
:1017E000CF910F91EF9008952091CA243091CB248E
:1017F0004091C2245091C324E12C01E06091BE24A9
:1018000080E09BE00E94AC201092BA2481E080939B
:1018100025248093A50680914A2490914B2492FF21
:101820009BCF8091602490916124019680931B242A
:1018300090931C2491CF2091CC243091CD244091C1
:10184000C4245091C524E12C01E06091BF2480E0C4
:101850009AE00E94AC201092BB2481E08093262461
:101860008093850680914A2490914B2493FF7BCFEF
:101870008091622490916324019680931D2490931B
:101880001E2471CF2091CE243091CF244091C624C4
:101890005091C724E12C01E06091C02480E099E0E0
:1018A0000E94AC201092BC2481E080932724809376
:1018B000650680914A2490914B2494FF5BCF8091E0
:1018C000642490916524019680931F249093202492
:1018D00051CFEF920F93CF93FC01C081C2FF04C0A0
:1018E00080912F24882351F1C3FF04C080913024BC
:1018F000882339F0C093892481E0CF910F91EF9034
:10190000089581E0809330242091A5243091A6246D
:10191000369527954091A3245091A4245695479538
:10192000E12C00E065E080E098E00E94AC20C093EC
:10193000892481E0CF910F91EF90089581E0809309
:101940002F242091A1243091A224369527954091EF
:101950009F245091A02456954795E12C00E065E026
:1019600080E099E00E94AC20BFCFCF93FC01C08102
:10197000C0FF04C080912524811130C0C1FF04C084
:1019800080912624811134C0C2FF04C08091272495
:1019900081111AC0C3FF04C08091282481110AC09C
:1019A0008C2F80958F7080937424C093752481E070
:1019B000CF91089581E08093460680E098E00E94F0
:1019C000C02010922824ECCF81E08093660680E04E
:1019D00099E00E94C02010922724DCCF81E0809300
:1019E000A60680E09BE00E94C02010922524C6CF6E
:1019F00081E08093860680E09AE00E94C0201092E9
:101A00002624C2CFCF93FC01C081C2FF04C08091C5
:101A10002F24811116C0C3FF04C08091302481118E
:101A200005C0C0938A2481E0CF910895109230249C
:101A300080E098E00E94C020C0938A2481E0CF918A
:101A4000089510922F2480E099E00E94C020E3CFF7
:101A50000F93CF93DF93FC01C08180913324C2FFA9
:101A600009C0882351F1C0938B2481E0DF91CF918D
:101A70000F9108958823B9F31092332410924009EE
:101A80008CE08093490920E048E164E080EA96E038
:101A90000E94492000E020E340E061E080EA96E017
:101AA0000E9476201092462410924724C0938B24E3
:101AB00081E0DF91CF910F910895D1E0D09333244D
:101AC0008091A9068C7F8093A9068091A9068C7FBE
:101AD0008093A90623E040E064E080EA96E00E945B
:101AE000492023E040E065E080EA96E00E9449203A
:101AF0008CE78093800189E08093880110924009EF
:101B00008CE08093490988E6809343098FEF9FEF2B
:101B1000809366099093670980E090E8809360095C
:101B200090936109D0934009C0938B2481E0DF91A9
:101B3000CF910F91089510927424809125248823C9
:101B400001F181E08093742489E09DE025E06BE061
:101B50005FE047E073E030912624332329F070934F
:101B60007424862F952F242F30912724332319F0A6
:101B700020937424892F90912824911180937424A8
:101B8000089588E09CE024E06AE05EE046E072E0D0
:101B9000E2CF1092872480912924882351F081E09C
:101BA0008093872493E080912A2481119093872445
:101BB000089592E0F8CF1092892480912F248823F1
:101BC00051F084E0809389249CE08091302481113D
:101BD00090938924089598E0F8CF81E0089580E0FB
:101BE000089581E0089581E0089581E0089581E0FD
:101BF000089581E0089581E0089581E0089581E0ED
:101C0000089581E0089580E0089581E0089581E0DD
:101C1000089581E0089581E0089581E0089581E0CC
:101C2000089581E0089581E0089581E0089581E0BC
:101C3000089581E0089581E0089581E00895089570
:101C400008950895089508950895089508950895AC
:101C5000089508950895089508950895089508959C
:101C6000089508950895089508950895089508958C
:101C7000089508950895089508950895089508957C
:101C8000089508950895089508950895089508956C
:101C9000089508950895089508950895089508955C
:101CA000089508950895089508950895089508954C
:101CB000089508950895089508950895089508953C
:101CC000089508950895089508950895089508952C
:101CD000089508950895089508950895089508951C
:101CE00008950895CF93FC01C081C0FF15C021E085
:101CF00040E064E080E696E00E945E2021E040E063
:101D000064E080E896E00E945E2021E040E064E02C
:101D100080EA96E00E945E20C093B52481E0CF91D6
:101D20000895CF93FC01C081C0FF15C021E040E0C1
:101D300064E080E696E00E945E2021E040E064E0FE
:101D400080E896E00E945E2021E040E064E080EAC6
:101D500096E00E945E20C093AE2481E0CF9108956A
:101D6000CF93FC01C081C0FF15C021E040E064E0DA
:101D700080E696E00E945E2021E040E064E080E89A
:101D800096E00E945E2021E040E064E080EA96E078
:101D90000E945E20C093AF2481E0CF910895CF933D
:101DA000FC01C081C0FF15C021E040E064E080E696
:101DB00096E00E945E2021E040E064E080E896E04A
:101DC0000E945E2021E040E064E080EA96E00E940C
:101DD0005E20C093B42481E0CF910895CF93FC019D
:101DE000C081C0FF15C021E040E064E080E696E0DD
:101DF0000E945E2021E040E064E080E896E00E94DE
:101E00005E2021E040E064E080EA96E00E945E20EF
:101E1000C093B02481E0CF910895CF93FC01C0819D
:101E2000C0FF15C021E040E064E080E696E00E943B
:101E30005E2021E040E064E080E896E00E945E20C1
:101E400021E040E064E080EA96E00E945E20C093DA
:101E5000B62481E0CF9108951F93CF93DF9300D0F4
:101E600000D0CDB7DEB7FC018181809376248081DC
:101E700080937724828180937824218120937C240D
:101E8000908190937D24828180937E243091982349
:101E9000409199231C821D821E8219821A821B8204
:101EA000413031F1313049F480917F248983809130
:101EB00080248A83809181248B8383E88093A2008D
:101EC0001091A30B1092A30BBE016F5F7F4FCE0149
:101ED00004960E94301C1093A30B87E88093A20005
:101EE00081E02696CDBFDEBFDF91CF911F9108958F
:101EF0002C839D838E83D6CF1F93CF93DF9300D007
:101F000000D0CDB7DEB7FC01818180937924808138
:101F100080937A24828180937B24218120937F2463
:101F200090819093802482818093812430919823A2
:101F3000409199231C821D821E8219821A821B8263
:101F4000413001F1313019F429839A838B8383E87E
:101F50008093A2001091A30B1092A30BBE016F5FA0
:101F60007F4FCE0104960E94301C1093A30B87E88C
:101F70008093A20081E02696CDBFDEBFDF91CF9196
:101F80001F91089540917C244C8340917D244D8382
:101F900040917E244E83D6CF1F93CF93DF9300D002
:101FA00000D0CDB7DEB7FC0181818093762480819B
:101FB000809377248281809378248481809379240C
:101FC000838180937A24858180937B2451815093EF
:101FD0007C24408140937D24328130937E2424816F
:101FE00020937F2493819093802485818093812402
:101FF00060919823709199231C821D821E82198200
:102000001A821B82713001F1613019F429839A839D
:102010008B8383E88093A2001091A30B1092A30BF3
:10202000BE016F5F7F4FCE0104960E94301C10935B
:10203000A30B87E88093A20081E02696CDBFDEBF88
:10204000DF91CF911F9108955C834D833E83DCCF58
:10205000FF920F931F93CF93DF9300D000D0CDB7A3
:10206000DEB7FC010081118100FF03C080E4809392
:10207000660601FF03C080E48093860602FF03C06A
:1020800080E48093A60603FD85C004FD7BC005FDAA
:1020900071C006FF03C080E48093250607FF03C0DC
:1020A00080E28093250610FD1092992311FD109275
:1020B0009823C80188279370892B19F18091982360
:1020C000909199231C821D821E8219821A821B8282
:1020D000913009F467C0813009F442C083E88093ED
:1020E000A200F090A30B1092A30BBE016F5F7F4F75
:1020F000CE0104960E94301CF092A30B87E88093D7
:10210000A20012FF03C081E08093A60613FF03C064
:1021100081E08093860614FF03C081E08093660609
:1021200015FF03C081E080934606C8018095909515
:1021300020913C2430913D248223932380933C249E
:1021400090933D24009338241093392481E02696FF
:10215000CDBFDEBFDF91CF911F910F91FF9008950A
:1021600080917F248983809180248A838091812437
:102170008B83B4CF80E88093A60661E08091B6247B
:102180006AD787CF80E88093860661E08091B52486
:1021900062D77DCF80E88093660661E08091B424A9
:1021A0005AD773CF90917C249C8390917D249D83FA
:1021B00090917E249E83813009F090CFD1CFEF9211
:1021C000FF920F931F93CF93DF9300D000D0CDB732
:1021D000DEB7FC0100811181F0909923E0909823F3
:1021E00080E400FF31C18093650680914A2480FD20
:1021F000A2C180E401FF25C18093850680914A2415
:1022000081FD8FC180E402FF19C18093A5068091F2
:102210004A2482FD7CC180E803FFF2C080936506FA
:1022200060E08091B42417D780914A2483FD65C172
:1022300080E804FFEEC08093850660E08091B524BD
:102240000AD780914A2484FD4EC180E805FFEAC088
:102250008093A50660E08091B624FDD680914A2443
:1022600085FD37C180E406FFE6C080932606809195
:102270004A2486FD24C180E207FF8EC08093260693
:1022800080914A2487FD11C110FF8AC081E08093AC
:10229000992380914A2490914B2490FF04C180910E
:1022A0005C2490915D2401968093172490931824C8
:1022B00081E011FD7AC01092982390E0F81609F49D
:1022C00089C01C821D821E8219821A821B82813063
:1022D00009F48CC0913049F480917F2489838091E6
:1022E00080248A83809181248B8383E88093A20059
:1022F000F090A30B1092A30BBE016F5F7F4FCE0136
:1023000004960E94301CF092A30B87E88093A200F1
:1023100081E012FFA5C08093A50680914A24909188
:102320004B2492FDB4C081E013FF97C080938506D3
:1023300080914A2490914B2493FD9FC081E014FF2B
:1023400089C08093650680914A2490914B2494FD26
:102350008AC081E015FF7BC08093450680914A24A6
:1023600090914B2495FF09C0809166249091672439
:102370000196809321249093222400933C2410936F
:102380003D2481E02696CDBFDEBFDF91CF911F9126
:102390000F91FF90EF9008958093250610FD76CF62
:1023A0001092992380E011FF86CF91E090939823BB
:1023B00020914A2430914B2431FF73C020915E2438
:1023C00030915F242F5F3F4F2093192430931A24BC
:1023D000F81277CFE91609F49BCF1C821D821E826A
:1023E00019821A821B82813009F074CF80917C247B
:1023F0008C8380917D248D8380917E248E836ACF0F
:102400008093660661E08091B42425D680E804FDBF
:1024100012CF8093860661E08091B5241CD680E8B7
:1024200005FD16CF8093A60661E08091B62413D6F1
:1024300080E406FD1ACF809325061DCF8093A60663
:10244000EACE80938606DECE80936606D2CE809357
:10245000460693CF809366067CCF809386066ECF28
:102460008093A60660CF80916424909165240196A4
:1024700080931F24909320246CCF809162249091AC
:102480006324019680931D2490931E2457CF80913E
:10249000602490916124019680931B2490931C24C6
:1024A00042CF91E00BCF81E07ECF80915A24909172
:1024B0005B2401968093152490931624E5CE809199
:1024C00058249091592401968093132490931424B6
:1024D000D2CE809156249091572401968093112456
:1024E00090931224BFCE809154249091552401964C
:1024F00080930F2490931024A8CE80915224909121
:102500005324019680930D2490930E2491CE8091B4
:10251000502490915124019680930B2490930C2485
:102520007ACE80914E2490914F2401968093092475
:1025300090930A2467CE80914C2490914D2401966B
:10254000809307249093082454CEFF920F931F93F7
:10255000CF93DF9300D000D0CDB7DEB7FC01008170
:10256000118100FF07C080E48093650680914A24B2
:1025700080FD51C101FF07C080E4809385068091F2
:102580004A2481FD3EC102FF07C080E48093A50676
:1025900080914A2482FDE9C003FDF2C004FD06C11A
:1025A00005FD1AC106FF07C080E4809326068091CE
:1025B0004A2486FDD0C007FF07C080E2809326062C
:1025C00080914A2487FDBDC010FF09C081E080933F
:1025D000992380914A2490914B2490FDA8C011FF2B
:1025E00009C081E08093982380914A2490914B24E4
:1025F00091FD93C0C80188279370892B19F18091B0
:102600009823909199231C821D821E8219821A821E
:102610001B82913009F413C1813009F406C183E8AB
:102620008093A200F090A30B1092A30BBE016F5FEA
:102630007F4FCE0104960E94301CF092A30B87E8D6
:102640008093A20012FF09C081E08093A5068091CB
:102650004A2490914B2492FD56C013FF09C081E09B
:102660008093850680914A2490914B2493FD41C02C
:1026700014FF09C081E08093650680914A249091FF
:102680004B2494FD2CC015FF12C081E080934506B9
:1026900080914A2490914B2495FF09C08091662433
:1026A0009091672401968093212490932224809115
:1026B0003C2490913D24802B912B80933C2490933B
:1026C0003D24009336241093372481E02696CDBF15
:1026D000DEBFDF91CF911F910F91FF900895809100
:1026E000642490916524019680931F249093202464
:1026F000CACF8091622490916324019680931D2417
:1027000090931E24B5CF809160249091612401960E
:1027100080931B2490931C24A0CF80915E249091E1
:102720005F2401968093192490931A2463CF80919B
:102730005C2490915D240196809317249093182433
:102740004ECF80915A2490915B240196809315245A
:102750009093162439CF8091582490915924019652
:10276000809313249093142426CF80915024909129
:102770005124019680930B2490930C2403FF0ECFD9
:1027800080E88093650660E08091B42464D48091F1
:102790004A2483FF03CF80915224909153240196C1
:1027A00080930D2490930E2404FFFACE80E880934A
:1027B000850660E08091B5244ED480914A2484FF40
:1027C000EFCE8091542490915524019680930F244C
:1027D0009093102405FFE6CE80E88093A50660E084
:1027E0008091B62438D480914A2485FFDBCE809135
:1027F000562490915724019680931124909312248B
:10280000D1CE80914E2490914F240196809309243B
:1028100090930A24B8CE80914C2490914D24019637
:102820008093072490930824A5CE80917F248983E8
:10283000809180248A83809181248B83F0CE909133
:102840007C249C8390917D249D8390917E249E8303
:10285000813009F0E4CEE9CFFF920F931F93CF931D
:10286000DF9300D000D0CDB7DEB7FC01008111812D
:1028700000FF07C08091680686FF39C180E480931D
:10288000670601FF07C08091880686FF1FC180E4AC
:102890008093870602FF07C08091A80686FF05C1C6
:1028A00080E48093A70603FF0FC08091680687FD30
:1028B000B8C180E88093650660E08091B424CBD3F2
:1028C00080914A2483FD7AC104FF0FC0809188065D
:1028D00087FDAFC180E88093850660E08091B524D4
:1028E000BAD380914A2484FD73C105FF0FC0809143
:1028F000A80687FD8EC180E88093A50660E08091E0
:10290000B624A9D380914A2485FD6CC106FF07C077
:102910008091280686FD33C180E48093270607FF57
:1029200007C08091280685FD19C180E280932706A3
:1029300010FF07C080919923882309F4A3C0109247
:10294000992311FF07C080919823882309F487C039
:1029500010929823C80188279370892B11F18091D8
:102960009823909199231C821D821E8219821A82BB
:102970001B82913009F440C1813009F411C183E810
:102980008093A200F090A30B1092A30BBE016F5F87
:102990007F4FCE01049664D7F092A30B87E8809313
:1029A000A20012FF07C08091A80680FF45C081E009
:1029B0008093A70613FF07C08091880680FFBBC0E5
:1029C00081E08093870614FF07C08091680680FF2E
:1029D0009FC081E08093670615FF16C0809148066E
:1029E00080FDE8C081E08093450680914A24909163
:1029F0004B2495FF09C0809166249091672401962D
:102A0000809321249093222480913C2490913D2412
:102A10008027912780933C2490933D2400933A246F
:102A200010933B2481E02696CDBFDEBFDF91CF918E
:102A30001F910F91FF90089581E08093A5068091EA
:102A40004A2490914B2492FFB5CF809160249091BD
:102A50006124019680931B2490931C24ABCF81E0CA
:102A60008093982380914A2490914B2491FF72CFB8
:102A700080915E2490915F24019680931924909315
:102A80001A2468CF81E08093992380914A24909101
:102A90004B2490FF56CF80915C2490915D24019649
:102AA00080931724909318244CCF80E48093A5063C
:102AB00080914A2482FFF7CE809150249091512436
:102AC000019680930B2490930C24EDCE80E48093A8
:102AD000850680914A2481FFDDCE80914E2490911D
:102AE0004F2401968093092490930A24D3CE80E446
:102AF0008093650680914A2480FFC3CE80914C2448
:102B000090914D2401968093072490930824B9CE88
:102B100081E08093650680914A2490914B2494FF34
:102B20005BCF8091642490916524019680931F244B
:102B30009093202451CF81E08093850680914A2490
:102B400090914B2493FF3FCF809162249091632416
:102B5000019680931D2490931E2435CF80E28093AC
:102B6000260680914A2487FFE3CE80915A249091D3
:102B70005B2401968093152490931624D9CE80E48B
:102B80008093260680914A2486FFC9CE80915824DE
:102B90009091592401968093132490931424BFCECE
:102BA00080917F248983809180248A8380918124ED
:102BB0008B83E5CE81E08093470626CF8091522417
:102BC00090915324019680930D2490930E247CCEF3
:102BD0008091542490915524019680930F249093D2
:102BE000102483CE8091562490915724019680938F
:102BF0001124909312248ACE90917C249C839091EE
:102C00007D249D8390917E249E83813009F0B7CEF0
:102C1000C7CF80E88093A70662E08091B6241BD2DC
:102C200075CE80E88093670662E08091B42413D269
:102C30004BCE80E88093870662E08091B5240BD26A
:102C400054CE1F93CF93DF9300D000D0CDB7DEB723
:102C50001C821D821E8219821A821B82813021F100
:102C6000613049F480917F248983809180248A8314
:102C7000809181248B8383E88093A2001091A30B21
:102C80001092A30BBE016F5F7F4FCE010496E8D573
:102C90001093A30B87E88093A2002696CDBFDEBFDA
:102CA000DF91CF911F91089580917C248C83809136
:102CB0007D248D8380917E248E83D2CF8F929F92AC
:102CC000AF92BF92CF92DF92EF92FF920F93CF938A
:102CD000DF93EC0168307105E0F16034710508F4B0
:102CE00078C06038710508F454C06F3F710509F071
:102CF00008F48FC0693582E07807F8F46B01E12CA5
:102D0000F12C60E072E18AE790E0A70196010E9451
:102D1000D42D49015A0160E074E284EF90E0A701EC
:102D200096010E94D42DBA01A901EE24E39401E09A
:102D3000940162E0CE010E94AC20DF91CF910F910F
:102D4000FF90EF90DF90CF90BF90AF909F908F90CB
:102D500008956B01E12CF12C64E274EF80E090E0C7
:102D6000A70196010E94D42D49015A0168E478EE2A
:102D700081E090E0A70196010E94D42DBA01A9013B
:102D8000EE24E39401E0940166E0CE010E94AC20C1
:102D9000D4CF6B01E12CF12C60E874E88EE190E077
:102DA000A70196010E94D42D49015A0160E079E003
:102DB0008DE390E0A70196010E94D42DBA01A901EC
:102DC000EE24E39401E0940164E0CE010E94AC2083
:102DD000B4CF6B01E12CF12C60E970ED83E090E061
:102DE000A70196010E94D42D49015A0160E271EABF
:102DF00087E090E0A70196010E94D42DBA01A901B5
:102E0000EE24E39401E0940165E0CE010E94AC2041
:102E100094CF6B01E12CF12C60E079E08DE390E040
:102E2000A70196010E94D42D49015A0160E072E188
:102E30008AE790E0A70196010E94D42DBA01A9016A
:102E4000EE24E39401E0940163E0CE010E94AC2003
:102E500074CF8F929F92AF92BF92CF92DF92EF92F8
:102E6000FF920F93CF93DF93FC01C081C0FF05C099
:102E700080912924882309F45DC0C1FF04C080919A
:102E80002A24882379F0C093872481E0DF91CF91B1
:102E90000F91FF90EF90DF90CF90BF90AF909F90F9
:102EA0008F90089581E0809386068AEA8A95F1F7EB
:102EB00000C0C0909924D0909A24E8E0CE16D104A6
:102EC00008F449C0F0E4CF16D10408F464C080E8E7
:102ED000C816D10408F47FC0EFEFCE16D10409F074
:102EE00008F499C0F9E5CF16F2E0DF06F8F4E12C1A
:102EF000F12C60E072E18AE790E0A70196010E9460
:102F0000D42D49015A0160E074E284EF90E0A701FA
:102F100096010E94D42DBA01A901EE24E39401E0A8
:102F2000940162E080E09AE00E94AC2081E080930E
:102F30002A24A9CFD1E0D093A606FAEAFA95F1F7B0
:102F400000C0609196247091972480E09BE0B6DEEB
:102F5000D093292492CFE12CF12C64E274EF80E02D
:102F600090E0A70196010E94D42D49015A0168E41E
:102F700078EE81E090E0A70196010E94D42DBA017D
:102F8000A901EE24E39401E0940166E080E09AE078
:102F90000E94AC20CBCFE12CF12C60E970ED83E0F6
:102FA00090E0A70196010E94D42D49015A0160E2E8
:102FB00071EA87E090E0A70196010E94D42DBA0142
:102FC000A901EE24E39401E0940165E080E09AE039
:102FD0000E94AC20ABCFE12CF12C60E874E88EE1CC
:102FE00090E0A70196010E94D42D49015A0160E0AA
:102FF00079E08DE390E0A70196010E94D42DBA01FB
:10300000A901EE24E39401E0940164E080E09AE0F9
:103010000E94AC208BCFE12CF12C60E079E08DE3B5
:1030200090E0A70196010E94D42D49015A0160E069
:1030300072E18AE790E0A70196010E94D42DBA01BF
:10304000A901EE24E39401E0940163E080E09AE0BA
:103050000E94AC206BCFE82F8F7039F08E2F90E05C
:10306000FC013197E730F10508F008958827E25018
:10307000FF4F8F4F0C94F02D662309F44DC0613043
:1030800009F07CC0609366060895662309F440C089
:10309000613009F06CC0609386060895662309F4D8
:1030A0003FC0613009F040C06093A60608956623D2
:1030B00059F1613009F046C080E28093A606089578
:1030C0006623F1F06130B9F580E2809386060895B9
:1030D000662391F0613009F043C080E28093660678
:1030E0000895662329F06130A1F56093460608959E
:1030F00081E080934506089580E2809365060895F7
:1031000080E280938506089580E28093A506089565
:1031100081E080938506089581E080936506089597
:1031200081E08093A5060895623009F09ECF81E08A
:103130008093A7060895623009F097CF80E28093CC
:1031400087060895623009F090CF80E28093A70649
:103150000895623009F089CF81E080934706089591
:10316000623009F082CF80E2809367060895623072
:1031700009F07BCF81E0809387060895623009F0E3
:1031800074CF81E08093670608950F9320E048E1B3
:1031900064E080E696E07DD720E048E165E080E6E7
:1031A00096E077D720E048E164E080E896E071D7C8
:1031B00020E048E165E080E896E06BD720E048E158
:1031C00064E080EA96E065D720E048E165E080EAC7
:1031D00096E05FD720E040E160E080E097E059D7DB
:1031E00020E040E060E080EE96E053D700E020E38E
:1031F00040E061E080E696E079D720E340E061E0DE
:1032000080E896E073D720E340E061E080EA96E052
:103210006DD78091080780FDA8C021E040E060E004
:1032200080E496E04BD721E040E060E080E696E065
:1032300045D721E040E060E080E896E03FD721E01C
:1032400040E060E080EA96E039D721E040E066E0C7
:1032500080E296E033D721E040E065E080E296E04E
:103260002DD720E040E065E080E496E027D721E01C
:1032700040E066E080E696E021D721E040E067E0AC
:1032800080E696E01BD721E040E066E080E896E02B
:1032900015D721E040E067E080E896E00FD721E015
:1032A00040E066E080EA96E009D721E040E067E090
:1032B00080EA96E003D781E0809346068093660615
:1032C000809386068093A60680E48093250690E28C
:1032D00090932506909346068093660680E8809337
:1032E0006606E091B4248E2F8F7091F580E4809370
:1032F000860680E880938606E091B5248E2F8F7035
:10330000D1F480E48093A60680E88093A606E0913D
:10331000B6248E2F8F7011F40F9108958E2F90E0A8
:10332000FC013197E730F105B8F78827EB5FFE4FD6
:103330008F4F0C94F02D8E2F90E0FC013197E730E9
:10334000F105F8F68827E45FFE4F8F4F0C94F02DBF
:103350008E2F90E0FC013197E730F10538F6882791
:10336000ED5EFE4F8F4F0C94F02D21E040E061E0C8
:1033700080EE96E0BBD651CF81E080936606CCCF3D
:1033800081E080938606C8CF81E08093A606C4CFF3
:1033900080E28093A606C0CF80E280938606BCCFF1
:1033A00080E280936606B8CF81E080934606B4CF72
:1033B00081E0809366069ACF81E08093860696CF5F
:1033C00081E08093A60692CF80E28093A6068ECFFE
:1033D00080E2809386068ACF80E28093660686CF5D
:1033E00081E08093460682CF81E08093460689CFB4
:1033F00081E08093660685CF81E08093860681CF49
:1034000081E08093A6067DCF80E28093A60679CFE7
:1034100080E28093860675CF80E28093660671CF46
:10342000D0913424C09143248D2F8E7F80933424F7
:103430009091680692959170892B809334248C2FFB
:103440008E7F809343249091680695FB992790F98D
:10345000892B809343248091680684FF05C060E037
:103460008091AE24F8DD04C061E08091AE24F3DDEC
:103470008091862480FF1BC080913424D81779F076
:1034800061E080E20E94FB268091B924882339F014
:10349000909169069C7F9093690680939423809114
:1034A0004324C81721F061E08BE20E94FB261895A7
:1034B000D0913424C09143249D2F9D7F9093342438
:1034C0008091880684FF02C082E001C080E0892BE1
:1034D000809334249C2F9D7F909343248091880671
:1034E00085FF02C082E001C080E0892B80934324E5
:1034F0008091880684FF05C060E08091AF24ABDD39
:1035000004C061E08091AF24A6DD8091862480FF15
:103510001BC080913424D81779F061E080E20E94CA
:10352000FB268091B924882339F0909189069C7FED
:10353000909389068093932380914324C81721F0A8
:1035400061E08BE20E94FB261895D0913424C09153
:1035500043249D2F9B7F909334248091A80684FF61
:1035600002C084E001C080E0892B809334249C2F2A
:103570009B7F909343248091A80685FF02C084E03E
:1035800001C080E0892B809343248091A80684FFAA
:1035900005C060E08091B0245EDD04C061E08091F0
:1035A000B02459DD8091862480FF1BC08091342493
:1035B000D81779F061E080E20E94FB268091B9245F
:1035C000882339F09091A9069C7F9093A906809357
:1035D000922380914324C81721F061E08BE20E947E
:1035E000FB26189520913424922F977F90933424B2
:1035F0008091E80680FF02C088E001C080E0892B4E
:10360000809334249091862490FF06C0281721F0DF
:1036100061E080E20E94FB26189580912524882392
:10362000D9F08091BA248823B9F08091C224909176
:10363000C32401978093260B9093270B8091CA2473
:103640009091CB248093280B9093290B8091BE24DA
:103650008093000B1092BA2480912924882359F07A
:103660008091862483FF07C081E08093952461E0E8
:103670008CE50E94FB26189580912924882371F0FF
:1036800080919723882351F01092972381E08093B3
:10369000A60680E09BE074D51092292418958091AD
:1036A00026248823D9F08091BB248823B9F0809107
:1036B000C4249091C52401978093260A9093270AE9
:1036C0008091CC249091CD248093280A9093290A4C
:1036D0008091BF248093000A1092BB2480912A24F9
:1036E000882359F08091862484FF07C081E080936D
:1036F000982461E08EE50E94FB26189580912A248B
:10370000882371F080919623882351F0109296239C
:1037100081E08093860680E09AE032D510922A24D8
:103720001895809127248823D9F08091BC24882380
:10373000B9F08091C6249091C724019780932609FF
:10374000909327098091CE249091CF2480932809CB
:10375000909329098091C024809300091092BC2481
:103760001895809128248823D9F08091BD2488233E
:10377000B9F08091C8249091C924019780932608BC
:10378000909327088091D0249091D1248093280889
:10379000909329088091C124809300081092BD2441
:1037A0001895809106248823F1F0109206248091C8
:1037B0002402909125029F7020912324309124248B
:1037C000821B930B80934424909345248091080797
:1037D00080FF2FC080E180932102809120028068C9
:1037E0008093200224C080912402909125029F7032
:1037F0002091232430912424821B930B809348240E
:1038000090934924209144243091452437FF04C0EB
:10381000109244241092452497FF0BC01092482424
:103820001092492406C060E08CE20E94FB261895A5
:1038300005C08091862482FFFACFF5CF0E94410116
:103840008091A20087688093A2007894FFCFE0E483
:10385000F6E080818062808380E28093460608954E
:10386000CF93DF93EC01DB018881E2EDF4E280830A
:10387000898181838A8182838C91838311968C9143
:103880001197848312968C91858396C00093450688
:103890000000000000000000000000000000000028
:1038A0000093460600000000000000000000000039
:1038B0000000000000000000000000000000000008
:1038C00000000000000000000000000000000000F8
:1038D000089500934506000000000000000000006D
:1038E00000000000000000000000000000000000D8
:1038F00000000000000000000000000000000000C8
:1039000000000093460600000000000000000000D8
:1039100000000000000000000000000000000000A7
:10392000000008950093450600000000000000001C
:1039300000000000000000000093460600000000A8
:103940000000000000000000000000000000000077
:103950000000000000000000000000000000000067
:1039600000000000000008950093450600000000DC
:103970000000000000000000000000000000000047
:103980000000000000000000000000000000000037
:103990000000000000000000009346060000000048
:1039A0000000000000000000000000000000000017
:1039B00000000000000008950F930F9200E20080C5
:1039C000019007FE63DF07FC84DF06FE5FDF06FC75
:1039D00080DF05FE5BDF05FC7CDF04FE57DF04FCB7
:1039E00078DF03FE53DF03FC74DF02FE4FDF02FCCF
:1039F00070DF01FE4BDF01FC6CDF00FE93DF00FC9B
:103A0000B3DF019007FE42DF07FC63DF06FE3EDF07
:103A100006FC5FDF05FE3ADF05FC5BDF04FE36DFF8
:103A200004FC57DF03FE32DF03FC53DF02FE2EDF10
:103A300002FC4FDF01FE2ADF01FC4BDF00FE72DFDC
:103A400000FC92DF019007FE21DF07FC42DF06FE4B
:103A50001DDF06FC3EDF05FE19DF05FC3ADF04FE34
:103A600015DF04FC36DF03FE11DF03FC32DF02FE4C
:103A70000DDF02FC2EDF01FE09DF01FC2ADF00FE64
:103A800051DF00FC71DF019007FE00DF07FC21DF42
:103A900006FEFCDE06FC1DDF05FEF8DE05FC19DF78
:103AA00004FEF4DE04FC15DF03FEF0DE03FC11DF90
:103AB00002FEECDE02FC0DDF01FEE8DE01FC09DFA8
:103AC00000FE30DF00FC50DF019007FEDFDE07FC68
:103AD00000DF06FEDBDE06FCFCDE05FED7DE05FCB5
:103AE000F8DE04FED3DE04FCF4DE03FECFDE03FCCE
:103AF000F0DE02FECBDE02FCECDE01FEC7DE01FCE6
:103B0000E8DE00FE0FDF00FC2FDF019007FEBEDEC7
:103B100007FCDFDE06FEBADE06FCDBDE05FEB6DEF7
:103B200005FCD7DE04FEB2DE04FCD3DE03FEAEDE0F
:103B300003FCCFDE02FEAADE02FCCBDE01FEA6DE27
:103B400001FCC7DE00FEEEDE00FC0EDF0F900F91E1
:103B5000DF91CF9108955058BB27AA270ED048C1B6
:103B600039D130F03ED120F031F49F3F11F41EF4F2
:103B70002EC10EF4E095E7FB24C1E92F4AD180F372
:103B8000BA17620773078407950718F071F49EF55A
:103B900062C10EF4E0950B2EBA2FA02D0B01B901D6
:103BA00090010C01CA01A0011124FF27591B99F0B3
:103BB000593F50F4503E68F11A16F040A22F232FBF
:103BC000342F4427585FF3CF469537952795A7950F
:103BD000F0405395C9F77EF41F16BA0B620B730BB6
:103BE000840BBAF09150A1F0FF0FBB1F661F771F27
:103BF000881FC2F70EC0BA0F621F731F841F48F4DC
:103C0000879577956795B795F7959E3F08F0B3CF61
:103C10009395880F08F09927EE0F9795879508954B
:103C20000CD0E6C0DED040F0D5D030F021F45F3FBC
:103C300019F0C7C0511110C1CAC0EBD098F3992335
:103C4000C9F35523B1F3951B550BBB27AA27621760
:103C50007307840738F09F5F5F4F220F331F441FA5
:103C6000AA1FA9F333D00E2E3AF0E0E830D09150DD
:103C70005040E695001CCAF729D0FE2F27D0660FCA
:103C8000771F881FBB1F261737074807AB07B0E809
:103C900009F0BB0B802DBF01FF2793585F4F2AF01F
:103CA0009E3F510568F08DC0D7C05F3FECF3983E52
:103CB000DCF3869577956795B795F7959F5FC9F77C
:103CC000880F911D9695879597F90895E1E0660F05
:103CD000771F881FBB1F621773078407BA0720F07E
:103CE000621B730B840BBA0BEE1F88F7E0950895E7
:103CF00098D088F09F5790F0B92F9927B751A0F02E
:103D0000D1F0660F771F881F991F1AF0BA95C9F76F
:103D100012C0B13081F09FD0B1E008959CC0672FF0
:103D2000782F8827B85F39F0B93FCCF3869577951F
:103D30006795B395D9F73EF4909580957095619508
:103D40007F4F8F4F9F4F0895E89409C097FB3EF433
:103D500090958095709561957F4F8F4F9F4F9923D8
:103D6000A9F0F92F96E9BB279395F6958795779556
:103D70006795B795F111F8CFFAF4BB0F11F460FF16
:103D80001BC06F5F7F4F8F4F9F4F16C0882311F06E
:103D900096E911C0772321F09EE8872F762F05C082
:103DA000662371F096E8862F70E060E02AF09A951D
:103DB000660F771F881FDAF7880F9695879597F912
:103DC000089597F99F6780E870E060E008959FEF9D
:103DD00080EC089500240A941616170618060906A2
:103DE000089500240A941216130614060506089571
:103DF000092E0394000C11F4882352F0BB0F40F4F9
:103E0000BF2B11F460FF04C06F5F7F4F8F4F9F4F38
:103E1000089557FD9058440F551F59F05F3F71F0BA
:103E20004795880F97FB991F61F09F3F79F0879521
:103E30000895121613061406551FF2CF4695F1DFAA
:103E400008C0161617061806991FF1CF869571053A
:103E5000610508940895E894BB2766277727CB016E
:103E600097F908950BD0C4CFB5DF28F0BADF18F06A
:103E7000952309F0A6CFABCF1124EECFCADFA0F374
:103E8000959FD1F3950F50E0551F629FF001729FEF
:103E9000BB27F00DB11D639FAA27F00DB11DAA1F0E
:103EA000649F6627B00DA11D661F829F2227B00D5B
:103EB000A11D621F739FB00DA11D621F839FA00DE6
:103EC000611D221F749F3327A00D611D231F849F36
:103ED000600D211D822F762F6A2F11249F5750408D
:103EE0008AF0E1F088234AF0EE0FFF1FBB1F661F28
:103EF000771F881F91505040A9F79E3F510570F0E1
:103F000060CFAACF5F3FECF3983EDCF386957795C0
:103F10006795B795F795E7959F5FC1F7FE2B880FDB
:103F2000911D9695879597F90895222309F45BC012
:103F300030E23093520038E030935000309151001D
:103F400033FFFCCF611538E4730738EE830731E0A7
:103F5000930709F482C0611534E2730734EF8307D5
:103F6000910509F47CC0611532E173073AE78307D4
:103F7000910509F44BC0611539E073073DE38307F0
:103F8000910509F46EC0603834E873073EE1830799
:103F9000910509F460C0603432E473073FE08307A1
:103FA000910509F462C0603231EA730737E0830794
:103FB000910509F458C0603930ED730733E0830789
:103FC000910509F454C0683438EE730731E0830773
:103FD000910509F44EC06432744F8105910509F0D2
:103FE0004AC084E414C032E2309352003AE0309385
:103FF00050003091510031FFFCCF3091510033FD22
:10400000A1CF3091510033FFF8CF9CCF8CE098EDD9
:1040100094BF222399F023E02093400094BF809323
:104020004100442329F088ED84BF81E08093420061
:1040300088ED84BF81E080938000089521E0209383
:10404000400094BF8093410094BF82E0809356006B
:1040500020936000E6CF8CE1DACF80E0D8CF84E017
:10406000D6CF84E1D4CF8CE2D2CF84E2D0CF84E328
:10407000CECF8CE3CCCF80E0089588ED84BF81E083
:1040800080938000089588ED84BF83E08093800052
:10409000FFCFFC01308181E090E0062E01C0880F47
:1040A0000A94EAF78095832380837096E60FF11DCA
:1040B0008081422B807C482B40830895FC01308115
:1040C00081E090E0062E01C0880F0A94EAF7382BB1
:1040D00030837096E60FF11D8081807C842B808375
:1040E000211103C080818760808308950F93FC01B4
:1040F0003185842F90E0880F991FA3E0B0E0082E4F
:1041000001C0AA0F0A94EAF7A095A323082E01C0C4
:10411000660F0A94EAF7A62BA18741110FC000236E
:10412000A9F02287248581E090E0042E01C0880F49
:104130000A94EAF7282B24870F910895413091F7CC
:10414000011108C08385822B8387ECCF8285822B67
:104150008287E8CF2387E6CFEF920F93FC0110828E
:104160008CE081874150510946A357A320A731A76E
:104170000683E78283E1818360830F91EF90089546
:10418000FC0110822CE0218708954F925F926F927C
:104190007F928F929F92AF92BF92EF92FF920F9376
:1041A0001F932B013C0149015A0120E030E0A90195
:1041B000C501B4010E94982D882309F43EC0C301B3
:1041C000B201C2DDA50194012BDD20E030E040E02A
:1041D0005FE3C2DC8DDD6115710521E08207910589
:1041E000A0F421E0F8012083F7016083718381E06E
:1041F0001F910F91FF90EF90BF90AF909F908F9085
:104200007F906F905F904F900895969587957795E2
:10421000679561157105F1E08F07910580F096951E
:1042200087957795679561157105F1E08F07910581
:1042300050F423E0F8012083D7CF80E0D9CF22E0EB
:10424000F8012083D1CF969587957795679561156D
:104250007105F1E08F07910588F0A3E096958795A9
:1042600077956795AA95D1F761157105F1E08F07EC
:10427000910540F425E0F8012083B6CF24E0F80151
:104280002083B2CF96958795779567959695879574
:104290007795679561157105F1E08F07910520F419
:1042A00026E0F8012083A0CF9695879577956795AE
:1042B000969587957795679561157105F1E08F075C
:1042C000910508F0BACF27E0F80120838DCFFC01DB
:1042D00010828CE081874150510946A357A3268361
:1042E000608308952091CF0127FDFCCF8093C0010A
:1042F0009093C1011092C20186E08093CA0188EDBB
:1043000084BF81E08093CB018091C4010895209106
:10431000CF0127FDFCCF2091CF0121FF08C026E36C
:104320002093CA0128ED24BF21E02093CB0123E391
:104330002093CA018093C0019093C1011092C201E1
:104340006093C40185E38093CA0188ED84BF81E056
:104350008093CB010895E1E7F0E090819D7F908309
:1043600091E090930002E1E0F2E020E620832081DA
:1043700020838093020285E08093040290932002C0
:10438000E2E2F2E01082808180830895CF93962F3D
:104390001092FF23803208F47FC0282F30E0205293
:1043A0003109F901E852FD4D5081220F331FF90107
:1043B000EE5DFD4DC081F901E459FE4D2081318152
:1043C0002093A0233093A1239093DB24252F2F70DB
:1043D0002C9FC02D1124EAE0EC0FE093DC248093A5
:1043E000DD242FEF2093DE2450615093DF24411110
:1043F0006BC080919C2390919D23A0919E23B091AE
:104400009F238093E0249093E124A093E224B0932F
:10441000E32420919A2330919B232093E42430932A
:10442000E5248E2F90E08E3F9105A4F52091A023E6
:104430003091A12340E0842F90E0F901E80FF91FAB
:104440005081FC01EA51FB4D50834F5F4C13F3CF79
:104450002091DC242E5F30E0215031091216130622
:104460000CF09FC080E090E040E050E0FC01E5529D
:10447000FB4D8081580F4F5F842F90E08217930788
:10448000ACF3F901E552FB4D508380913323813029
:1044900009F46BC0CF9108958F30E0F7282F30E0FA
:1044A000F901EE57FC4D5081220F331FF901EC59F1
:1044B000FC4DC081F901EA5BFC4D208131812093E4
:1044C000A0233093A12380CF20914C084091B423A6
:1044D0005091B5236091B6237091B72320FF21C07E
:1044E0004F5F5F4F6F4F7F4F4093E0245093E12425
:1044F0006093E2247093E324209160083091610876
:104500002093E4243093E524883009F08ACF933057
:1045100009F087CF1092E4241092E524E091DC2486
:1045200080CF4093E0245093E1246093E224709381
:10453000E32420916008309161082093E4243093B3
:10454000E524F091A523F03DF9F62F303105E0F692
:104550004F5F5F4F6F4F7F4F4093E0245093E124B4
:104560006093E2247093E324CFCF83E88093A2008A
:10457000C091A30B9091A30B9C7F9093A30B609190
:10458000DC246E5F8BED94E20E949B2B9091A30B39
:104590008C2F8370892B8093A30B87E88093A200D4
:1045A00079CF50E06ECFCF93E091DE3D2E2F30E0FB
:1045B00024303105BCF090E020E030E0F901EE510C
:1045C000F24C4081F901E851F24C40839F5F292F62
:1045D00030E0E091DE3D4E2F50E04350510924176A
:1045E000350764F38093DD3DEA5FE093DE3D809123
:1045F000E13D80618093E13D80914C0880FF5FC088
:104600008091B4239091B523A091B623B091B723A4
:10461000AC01BD014F5F5F4F6F4F7F4F4093E23D55
:104620005093E33D6093E43D7093E53D2091600835
:10463000309161082093E63D3093E73D2091FF23C0
:104640002223B9F020914C0820FF69C00196A11DDA
:10465000B11D8093E23D9093E33DA093E43DB09380
:10466000E53D80916008909161088093E63D9093CC
:10467000E73DF0E0E252F24C10826091DE3D40E016
:10468000262F30E080E090E0F901E252F24CDC01AC
:10469000A352B24C20818C91280F20834F5F6091F0
:1046A000DE3D262F30E0842F90E02817390764F78D
:1046B00080913323813009F457C0CF9108958091C0
:1046C000B4239091B523A091B623B091B7238093E2
:1046D000E23D9093E33DA093E43DB093E53D20910E
:1046E0006008309161082093E63D3093E73D4091AA
:1046F000A523403D09F0A2CF2F30310508F09ECF11
:10470000AC01BD014F5F5F4F6F4F7F4F4093E23D64
:104710005093E33D6093E43D7093E53D8FCF8093EC
:10472000E23D9093E33DA093E43DB093E53D2091BD
:104730006008309161082093E63D3093E73D409159
:10474000A523403D09F095CF2F30310508F091CFDA
:104750000196A11DB11D8093E23D9093E33DA0938E
:10476000E43DB093E53D85CF83E88093A200C091FE
:10477000A30B9091A30B9C7F9093A30B6E5F8DED89
:104780009DE3D9D79091A30B8C2F8370892B8093B5
:10479000A30B87E88093A200CF9108952F923F92B8
:1047A0004F925F926F927F928F929F92AF92BF9241
:1047B000CF92DF92EF92FF920F931F93CF93DF93ED
:1047C0001F92CDB7DEB73C01462E142FF22E3F8844
:1047D000288C998C5A8C51DC21E041E060E078E42F
:1047E00088EE91E0A2DB81E0809348006092AB23E9
:1047F0007092AC234092AD231093AE23E092AF238E
:104800008093B0238AE08093B123F092B223009387
:10481000B3231092B4231092B5231092B6231092B2
:10482000B7231092B8231092B92382E090E05ADDAA
:10483000482E83E090E056DD89838F3F09F416C14E
:10484000F41409F4CBC06FED80E090E060DD6F2DD3
:1048500082E090E05CDD61E083E090E058DD0E9462
:10486000E40180E090E03EDD8E3E09F4C3C080E6C6
:104870008093BA2380E48093D7230E9443058091DC
:10488000D72391109DC090E0892B552009F49CC03E
:1048900090E1892B8093D7230E94E30180E48093E9
:1048A000BB230E946B020E940D03A092A923B09229
:1048B000AA23C092A723D092A8238092A62387E0A0
:1048C00090E010DD8F3F09F409C10CEB13E2F6EF25
:1048D000EF2EFF24FA94C7018B5A93427C01C70143
:1048E000800F911FFFDCF80181938F01F3E2053DFA
:1048F0001F07A9F789E1ECEBF3E2A9EDB3E2019020
:104900000D928A95E1F784E090E0ECDC082F10E04E
:104910000093D5231093D62385E090E0E3DC302F7D
:104920002227282B2093D5233093D6238091D72379
:10493000992009F44BC0886051104CC08F7E809341
:10494000D72321E042E15AE767E080E498E0BFDC4A
:10495000E091A52381E08E0F8093A523F0E0E25C37
:10496000FC4D808190E001978093680890936908DE
:1049700081E08093470820E040E066E080E096E038
:104980009DDB80E48093050640E060E081E090E0FC
:10499000BDD51BD684EB93E20F90DF91CF911F9191
:1049A0000F91FF90EF90DF90CF90BF90AF909F90CE
:1049B0008F907F906F905F904F903F902F90E9C7BE
:1049C00098E0892B511064CF90E063CF877F55200A
:1049D00009F4B4CF80618093D723B3CF998191300C
:1049E00009F031CF0E94E40180E090E07BDC8E3E54
:1049F00009F03DCF81E090E075DC8093BA23A114EB
:104A0000B10491F0760185010C0D1D1DA0E26A2E06
:104A1000712CC30167DCF70181937F01FFEF6F1AEF
:104A20007F0AE016F106A9F786E090E05BDC982F9C
:104A30009F7790649093D723992011F080FD69C0EF
:104A400051100AC097FD6AC096FD0DC080E88093A2
:104A5000BB230E940D0329CF91FFF4CF0E94420592
:104A60009091D723EFCF0E944305F0CF6F2D82E0C6
:104A700090E04DDC61E083E090E049DC82E090E092
:104A800031DC482E83E090E02DDC8983032D122D4C
:104A9000B7E06B2E712CE12C0BC0E1100EC0C301EE
:104AA00036DCFFEF6F1A7F0A80E26816710489F026
:104AB000F80161918F016111F0CF60E0C30127DC43
:104AC000EE24E394FFEF6F1A7F0A80E26816710408
:104AD00079F76FED80E090E01ADCB2CEE32CF22C97
:104AE00007E010E0D12C0AC0D1100DC0C8010FDCC6
:104AF0000F5F1F4F0032110509F4E7CEF7016191F6
:104B00007F016111F1CF60E0C80101DCDD24D394A5
:104B1000EFCF0E9441059091D72392CF0E94440588
:104B20009091D72391CF0E946D0120E480E092EE16
:104B3000A4E0B0E00197A109B1090097A105B10572
:104B4000C9F720930706F2CF8091B4239091B52343
:104B5000A091B623B091B7230196A11DB11D8093FA
:104B6000B4239093B523A093B623B093B723809139
:104B7000FD238F5F8093FD238EE090E08093680893
:104B80009093690881E08093A5230E94A4038091FB
:104B90004C08806180934C080E94C7030E94140552
:104BA0004091BA2347FD03C0842F8370B3C0842F84
:104BB0008370813009F0AEC01092FF2384EB93E242
:104BC0008093A0239093A12383E08093DB248EE045
:104BD0008093DC2488E08093DD248FEF8093DE24B3
:104BE00084E18093DF2480914C0880FF18C080917D
:104BF000B4239091B523A091B623B091B723019629
:104C0000A11DB11D8093E0249093E124A093E224A0
:104C1000B093E324809160089091610826C0809150
:104C2000B4239091B523A091B623B091B72380937C
:104C3000E0249093E124A093E224B093E324209114
:104C40006008309161085091A523503D71F42F30D8
:104C5000310558F40196A11DB11D8093E024909375
:104C6000E124A093E224B093E3241092E424109270
:104C7000E5248091B4239091B523A091B623B091FF
:104C8000B7238093E6249093E724A093E824B0937D
:104C9000E9242091DC242E5F30E0215031091216E6
:104CA000130684F450E060E080E090E0FC01E552FF
:104CB000FB4D8081680F5F5F852F90E0821793071F
:104CC000ACF301C060E0F901E552FB4D60838091D7
:104CD0003323813021F583E88093A200C091A30B98
:104CE0009091A30B9C7F9093A30B6091DC246E5F4B
:104CF0008BED94E220D59091A30B8C2F8370892BA0
:104D00008093A30B87E88093A2004091BA23842F5D
:104D1000837000C0882339F0813019F400C092E01C
:104D200003C091E001C094E08091B423892321F075
:104D300080E48093060605C046FF03C080E48093AC
:104D400005060E94C60380914C0884FF05C080912F
:104D5000A423811101C0E7DE18951092FF238091F2
:104D60004C0880FF1CC08091B4239091B523A09182
:104D7000B623B091B7230196A11DB11D80939C234A
:104D800090939D23A0939E23B0939F2380916008CE
:104D90009091610880939A2390939B23089580912A
:104DA000B4239091B523A091B623B091B7238093FB
:104DB0009C2390939D23A0939E23B0939F232091A7
:104DC00060083091610820939A2330939B2340918F
:104DD000A523403D09F008952F303105E0F70196F5
:104DE000A11DB11D80939C2390939D23A0939E238E
:104DF000B0939F2308959091BA239370913009F056
:104E00000895462F63E0C2CAFF920F931F93CF937A
:104E1000DF93FC0180818130E9F0823009F444C0E5
:104E2000843009F448C0883039F081E0DF91CF91B7
:104E30001F910F91FF9008956FEF87E090E067DA80
:104E400083E08093A42381E0DF91CF911F910F91A4
:104E5000FF90089509ED13E2C7E0D0E0F12C08C0FF
:104E6000F1100BC0CE0153DA2196C032D10571F09A
:104E7000F80161918F016111F3CF60E0CE0147DA53
:104E8000FF24F3942196C032D10591F76FED80E0B5
:104E900090E03DDA83E08093A42381E0DF91CF911D
:104EA0001F910F91FF90089580E090E01BDA8E3EF5
:104EB00039F280E0BBCF6EEE80E090E028DA6091BE
:104EC000BA2381E090E023DA6091D72386E090E076
:104ED0001EDA8091A9239091AA23892B09F4B0CFDF
:104EE000C0E0D0E0E091A723F091A823EC0FFD1FD4
:104EF0006081CE0180960BDA21968091A923909152
:104F0000AA23C817D90770F39BCFCF93DF93FC0177
:104F1000C0818C2F8170C0FF04C09091D72393FF74
:104F200034C0DC2FD270C1FF04C09091D72394FF0E
:104F30002CC0C7FD26C0882321F08091D72380FF95
:104F400028C0DD2321F08091D72381FF33C0C6FF25
:104F500004C08091D72386FF34C0C7FD04C081E020
:104F6000DF91CF9108958091D72387FDF8CF8F7B74
:104F700080688093D7230E94440581E0DF91CF9120
:104F800008959091D72390FFD6CF80E0DF91CF9105
:104F900008958D7F81608093D7230E944105809181
:104FA000D72387FFCECF8F7780648093D7230E944B
:104FB0004305C7CF8E7F82608093D7230E9442052E
:104FC000C6CF8F7780648093D7230E944305C5CFD7
:104FD000CF92DF92FF920F931F93CF93DF931F9295
:104FE0001F92CDB7DEB78F3040F4E82FF0E0DF013D
:104FF000AE57BC4D9C91961759F080E00F900F90E2
:10500000DF91CF911F910F91FF90DF90CF90089586
:10501000EE0FFF1FEC59FC4D608171816217730721
:1050200061F7883009F445C08A30B1F08B3009F45B
:1050300080C08C3009F493C08D3009F44DC08E309F
:10504000E1F6CA010F900F90DF91CF911F910F9160
:10505000FF90DF90CF9059CFFA01108116FD03C069
:1050600080E4809306060091BA23812F837F80938A
:10507000BA2315FF59C005FF8EC013FF0EC081E093
:105080008093F5231092F3238093F4231092F2235C
:105090008091BA23877F8093BA231370D9F5037068
:1050A00011F481E0ABCF1092F5230E94A10381E0BF
:1050B000A5CF8091D72387FDA0CFFA018081918170
:1050C000A281B3818093B4239093B523A093B62398
:1050D000B093B72381E092CFFA018081918101964C
:1050E00009F45CC08091D823882309F486CFFA01A3
:1050F000608185E090E049835A8309D949815A81CA
:10510000FA01618184E090E002D983E08093A423D6
:1051100081E074CF1130C1F40370013009F4C1CFC4
:105120000E94A20381E06ACF05FFA7CF0E94A003DF
:10513000A4CFCA010F900F90DF91CF911F910F91D3
:10514000FF90DF90CF9060CE133009F0AACF0370AC
:10515000033009F4A6CF0E94A30381E04FCF8A0158
:1051600087E0C82ED12CF12C0BC0F1100EC0C60167
:10517000CED8FFEFCF1ADF0A20E2C216D10429F2FF
:10518000F80161918F016111F0CF60E0C601BFD8D5
:10519000FF24F394EECF0E949F036FCF81E08093B2
:1051A000D8232CCF0E94A4038091680890916908AD
:1051B000E091A52321E02E0F2093A523E770F0E0D6
:1051C000E25CFC4D3081830F911D809368089093C1
:1051D000690820FD2AC180913323813069F48093CE
:1051E000250783E88093A2008091A30B8F7C809396
:1051F000A30B87E88093A2008091FC23811103C058
:105200008091FB230FC081508093FC23882319F0E9
:105210008091FB2307C01092FC231092FB23109275
:10522000F6239FC0882309F49CC0A091DB25B09190
:10523000DC258091DE3D8F3F59F01091DF3D50918C
:10524000E03D0091E13D32EEE32E3DE3F32E0AC056
:105250001091E13D5091E23D0091E33D24EEE22EBC
:105260002DE3F22EFD01319681F090E040E020E048
:1052700030E0E901C352D24C2881420F9F5F292FB1
:1052800030E02E173F07A8F301C040E0E352F24C94
:105290009081491364C05F3F09F061C09091DD3D8A
:1052A000913099F51D31B0F41F3008F023C1E12F82
:1052B000F0E0EE57FC4D908109131CC1193009F044
:1052C00014C180916008909161088093B8239093F5
:1052D000B9230BC1602F812F0E944B059091BA23F7
:1052E00094FD3DC0811103C08091DE3D05C041E0C9
:1052F00061E0812F4BD833C01092FF2390E0883FAC
:1053000091056CF589E04FD92AC0CD010497202F73
:105310002F70622F70E034D41D3130F49B01A7014F
:10532000602F812F55DE06C09B01A701602F812FC2
:105330000E9464059091BA2394FD11C0882329F03E
:1053400041E062E0812F22D80AC01092FF238091B1
:10535000DE3D90E0883F910514F48AE024D9109254
:10536000FB2380913323813009F05CC080910807D2
:1053700086FF46C08091A2239091A3230196883B8B
:105380002BE0920729F08093A2239093A3233CC0A3
:105390001092A2231092A3238091BA23982F937086
:1053A0009130E9F486FD03C090E490930606982FAF
:1053B000907F9093BA2383FF0BC01092F32381E078
:1053C0008093F4231092F223892F877F8093BA234E
:1053D0001092F5230E94A1039091332301C091E024
:1053E0001092F9231092FA231092F7231092F823C7
:1053F0008091A30B8C7F8093A30B913029F012C076
:105400001092A2231092A32383E88093A20080919C
:10541000A30B80638093A30B87E88093A20081E0B5
:10542000809326070E94CA0302C00E94140580913F
:10543000A423882339F081508093A423811102C0D2
:105440000E9443208091F4238823E1F08091A523DA
:1054500083708230B9F48091F2238F3060F4893008
:1054600009F04DC020916008309161082093B82365
:105470003093B92344C08F5F8093F2238C3111F4B1
:105480001092F4238091F523882311F18091A523B4
:105490008370F1F48091F323E82FF0E0E852FD4DA2
:1054A0006081805E0E944B05882339F08091F32350
:1054B00041E061E0805E0E94C6218091F3238F5F0E
:1054C0008093F3239091A623891302C01092F523B1
:1054D0000E94C60380914C0884FF05C08091A423DC
:1054E000811101C020DB189511C08091BA2384FF7F
:1054F000FECE35CF9091BA2394FFFECE30CF41E05F
:1055000061E00E94C6218091F223B5CFFF920F93F4
:105510001F93CF93DF931F921F92CDB7DEB789837E
:105520009A83F62E142F20E040E060E080E297E0BE
:105530000E945E2020E040E066E080E097E00E946C
:10554000492001E020E440E063E080E097E00E9431
:10555000762081E08093260783E08093A50B8981E4
:105560008093A60B8F2D90E18902B00111248A81CE
:105570008F70862B8093A70B112329F08091A40BA9
:1055800084608093A40B88E08093A50620E040E02F
:1055900063E080EA96E00E945E2020E040E062E066
:1055A00080EA96E00E9449208091080786FF05C0A6
:1055B0008091A30B8C7F8093A30B0F900F90DF91B2
:1055C000CF911F910F91FF900895E0EAFBE0848155
:1055D0008861848380EE81838381806383830895DF
:1055E0001F920F920FB60F92112408B60F9218BE99
:1055F00009B60F9219BE0BB60F921BBE2F933F93A5
:105600004F935F936F937F938F939F93AF93BF93CA
:10561000EF93FF930E9447052091F9233091FA23DD
:10562000C90101968093F9239093FA23F901E3527B
:10563000FA4D20812093A00B811528E1920729F1D2
:105640002091F7233091F8232817390729F4809106
:10565000A30B8C7F8093A30B0E944805FF91EF91D1
:10566000BF91AF919F918F917F916F915F914F917A
:105670003F912F910F900BBE0F9009BE0F9008BE67
:105680000F900FBE0F901F9018951092F923109253
:10569000FA2380E090E0D4CF1F920F920FB60F92C2
:1056A000112408B60F9218BE09B60F9219BE0BB698
:1056B0000F921BBE2F933F934F935F936F937F93F4
:1056C0008F939F93AF93BF93EF93FF930E944905EE
:1056D0008091080786FD29C02091F9233091FA2393
:1056E0008091F7239091F8232817390729F08091AA
:1056F000A30B83608093A30B0E944A05FF91EF9157
:10570000BF91AF919F918F917F916F915F914F91D9
:105710003F912F910F900BBE0F9009BE0F9008BEC6
:105720000F900FBE0F901F9018958091A30B8C7F48
:105730008093A30BE1CFBF92CF92DF92EF92FF92C3
:105740000F931F93CF93DF936C01B62E80910807C0
:1057500086FD05C08091A30B83608093A30B00910D
:10576000F7231091F823C0E0D8E1C01BD10BEB2C3C
:10577000F12CCE15DF0558F1A701B601C8018352FF
:105780009A4D59D28091F9239091FA23E00EF11E9F
:10579000E092F723F092F823E11428E1F20609F4ED
:1057A00046C008171907A8F5E816F90690F18FEF1B
:1057B000E81AF80AE092F923F092FA23E11428E1BA
:1057C000F20639F51092F9231092FA2322C0AE01A5
:1057D000B601C80183529A4D2ED2BC1AEB2CF12C83
:1057E000BE016C0D7D1DA7018DED95E224D2809147
:1057F000F9239091FA23E092F723F092F823081707
:10580000190788F42FEFE21AF20AE092F923F092D6
:10581000FA23DF91CF911F910F91FF90EF90DF90CE
:10582000CF90BF900895E816F90660F7F2CF109276
:10583000F7231092F823892B61F781E090E08093A1
:10584000F9239093FA23E5CF1F920F920FB60F9290
:10585000112408B60F9218BE09B60F9219BE0BB6E6
:105860000F921BBE2F933F934F935F936F937F9342
:105870008F939F93AF93BF93EF93FF930E94450540
:105880009091A00BE091F62381E08E0F8093F62398
:10589000F0E0E352F24C9083813019F1843049F109
:1058A00090E02091DB253091DC258217930779F178
:1058B0000E944605FF91EF91BF91AF919F918F910B
:1058C0007F916F915F914F913F912F910F900BBE00
:1058D0000F9009BE0F9008BE0F900FBE0F901F9043
:1058E00018958091DD3D81508230D0F11092F623E1
:1058F000DFCF8091DE3D8F3F01F190E08E3F91053B
:10590000A9F302968093DB259093DC25D1CF2091DB
:105910003323213061F12091DE3D2F3F29F122E038
:1059200030E0821B930B8093DB259093DC25109253
:10593000F62381E08093FB23BBCF8091DE3D9091E5
:10594000DF3D04968F3F910509F080F68091DF3DA1
:105950009091E03D04968093DB259093DC25A8CFC1
:1059600082E38093FC23A4CF24E030E0DACF2093BD
:10597000250783E88093A2008091A30B8F7C8093FE
:10598000A30B87E88093A2008091DB259091DC2512
:10599000C2CFCF93DF931F921F92CDB7DEB723E123
:1059A00030E029833A83809300249093012483E09C
:1059B0008093B50889818093B6088A818F7080931F
:1059C000B70820E048E166E080E496E00E944920C4
:1059D00080E18093B408E3EBF8E08081806380830A
:1059E0000F900F90DF91CF9108951F920F920FB6F5
:1059F0000F92112408B60F9218BE09B60F9219BE65
:105A00000BB60F921BBE2F938F939F93AF93BF93B1
:105A1000EF93FF938091B0088A3AE9F18F3A09F445
:105A20004FC09091FE23923009F44EC008F478C024
:105A3000943009F455C008F44DC0953079F5809341
:105A400005241092FE238091FD238A3008F44EC075
:105A500082EF99E7809360089093610881E09AE76C
:105A6000809368089093690881E08093FF2326E083
:105A700020933423E0910024F091012480910224AA
:105A800090910324A0910424B091052480839183F4
:105A9000A283B38303C081E08093FE23FF91EF9143
:105AA000BF91AF919F918F912F910F900BBE0F904F
:105AB00009BE0F9008BE0F900FBE0F901F90189553
:105AC00082E08093FE23EACF8093022483E08093D8
:105AD000FE23E4CF8093032484E08093FE23DECF73
